{
  "abi": [
    {
      "inputs": [
        {
          "internalType": "address",
          "name": "_invoker",
          "type": "address"
        }
      ],
      "stateMutability": "nonpayable",
      "type": "constructor"
    },
    {
      "stateMutability": "payable",
      "type": "fallback"
    },
    {
      "inputs": [
        {
          "internalType": "address",
          "name": "dest",
          "type": "address"
        },
        {
          "internalType": "uint256",
          "name": "value",
          "type": "uint256"
        }
      ],
      "name": "flush",
      "outputs": [],
      "stateMutability": "nonpayable",
      "type": "function"
    },
    {
      "inputs": [
        {
          "internalType": "address",
          "name": "tokenContractAddress",
          "type": "address"
        },
        {
          "internalType": "uint256",
          "name": "id",
          "type": "uint256"
        },
        {
          "internalType": "uint256",
          "name": "value",
          "type": "uint256"
        },
        {
          "internalType": "address",
          "name": "dest",
          "type": "address"
        }
      ],
      "name": "flushERC1155Tokens",
      "outputs": [],
      "stateMutability": "nonpayable",
      "type": "function"
    },
    {
      "inputs": [
        {
          "internalType": "address",
          "name": "tokenContractAddress",
          "type": "address"
        },
        {
          "internalType": "uint256",
          "name": "id",
          "type": "uint256"
        },
        {
          "internalType": "address",
          "name": "dest",
          "type": "address"
        }
      ],
      "name": "flushERC721Token",
      "outputs": [],
      "stateMutability": "nonpayable",
      "type": "function"
    },
    {
      "inputs": [
        {
          "internalType": "address",
          "name": "tokenContractAddress",
          "type": "address"
        },
        {
          "internalType": "uint256",
          "name": "value",
          "type": "uint256"
        },
        {
          "internalType": "address",
          "name": "dest",
          "type": "address"
        }
      ],
      "name": "flushTokens",
      "outputs": [],
      "stateMutability": "nonpayable",
      "type": "function"
    },
    {
      "inputs": [],
      "name": "invoker",
      "outputs": [
        {
          "internalType": "address",
          "name": "",
          "type": "address"
        }
      ],
      "stateMutability": "view",
      "type": "function"
    },
    {
      "stateMutability": "payable",
      "type": "receive"
    }
  ],
  "bytecode": {
    "object": "0x60a060405234801561001057600080fd5b5060405161069238038061069283398101604081905261002f91610040565b6001600160a01b0316608052610070565b60006020828403121561005257600080fd5b81516001600160a01b038116811461006957600080fd5b9392505050565b6080516105ec6100a66000396000818160d301528181610156015281816101a8015281816101f801526102d101526105ec6000f3fe6080604052600436106100585760003560e01c8063aca8fc5911610040578063aca8fc59146100a1578063d6643a74146100c1578063fbd5f6b01461011e57005b80630e1b84f41461006157806396fd1c421461008157005b3661005f57005b005b34801561006d57600080fd5b5061005f61007c36600461050a565b61013e565b34801561008d57600080fd5b5061005f61009c366004610546565b610190565b3480156100ad57600080fd5b5061005f6100bc36600461050a565b6101e0565b3480156100cd57600080fd5b506100f57f000000000000000000000000000000000000000000000000000000000000000081565b60405173ffffffffffffffffffffffffffffffffffffffff909116815260200160405180910390f35b34801561012a57600080fd5b5061005f610139366004610570565b6102b9565b3373ffffffffffffffffffffffffffffffffffffffff7f0000000000000000000000000000000000000000000000000000000000000000161461018057600080fd5b61018b8382846103a8565b505050565b3373ffffffffffffffffffffffffffffffffffffffff7f000000000000000000000000000000000000000000000000000000000000000016146101d257600080fd5b6101dc828261046c565b5050565b3373ffffffffffffffffffffffffffffffffffffffff7f0000000000000000000000000000000000000000000000000000000000000000161461022257600080fd5b6040517f42842e0e00000000000000000000000000000000000000000000000000000000815230600482015273ffffffffffffffffffffffffffffffffffffffff8281166024830152604482018490528491908216906342842e0e90606401600060405180830381600087803b15801561029b57600080fd5b505af11580156102af573d6000803e3d6000fd5b5050505050505050565b3373ffffffffffffffffffffffffffffffffffffffff7f000000000000000000000000000000000000000000000000000000000000000016146102fb57600080fd5b6040517ff242432a00000000000000000000000000000000000000000000000000000000815230600482015273ffffffffffffffffffffffffffffffffffffffff8281166024830152604482018590526064820184905260a06084830152600060a483015285919082169063f242432a9060c401600060405180830381600087803b15801561038957600080fd5b505af115801561039d573d6000803e3d6000fd5b505050505050505050565b60006040517fa9059cbb000000000000000000000000000000000000000000000000000000008152836004820152826024820152602060006044836000895af13d15601f3d1160016000511416171691505080610466576040517f08c379a000000000000000000000000000000000000000000000000000000000815260206004820152600f60248201527f5452414e534645525f4641494c4544000000000000000000000000000000000060448201526064015b60405180910390fd5b50505050565b600080600080600085875af190508061018b576040517f08c379a000000000000000000000000000000000000000000000000000000000815260206004820152601360248201527f4554485f5452414e534645525f4641494c454400000000000000000000000000604482015260640161045d565b803573ffffffffffffffffffffffffffffffffffffffff8116811461050557600080fd5b919050565b60008060006060848603121561051f57600080fd5b610528846104e1565b92506020840135915061053d604085016104e1565b90509250925092565b6000806040838503121561055957600080fd5b610562836104e1565b946020939093013593505050565b6000806000806080858703121561058657600080fd5b61058f856104e1565b935060208501359250604085013591506105ab606086016104e1565b90509295919450925056fea26469706673582212203ca086a6ed713deca88f21bcdaf604f290d223d68af47dd9e5c9314ea3b0818264736f6c63430008110033",
    "linkReferences": {}
  },
  "methodIdentifiers": {
    "flush(address,uint256)": "96fd1c42",
    "flushERC1155Tokens(address,uint256,uint256,address)": "fbd5f6b0",
    "flushERC721Token(address,uint256,address)": "aca8fc59",
    "flushTokens(address,uint256,address)": "0e1b84f4",
    "invoker()": "d6643a74"
  },
  "id": 44
}