{
  "abi": [
    {
      "inputs": [
        {
          "internalType": "address",
          "name": "_forwarderImplementation",
          "type": "address"
        }
      ],
      "stateMutability": "nonpayable",
      "type": "constructor"
    },
    {
      "anonymous": false,
      "inputs": [
        {
          "indexed": true,
          "internalType": "address",
          "name": "owner",
          "type": "address"
        },
        {
          "indexed": true,
          "internalType": "address",
          "name": "approved",
          "type": "address"
        },
        {
          "indexed": true,
          "internalType": "uint256",
          "name": "tokenId",
          "type": "uint256"
        }
      ],
      "name": "Approval",
      "type": "event"
    },
    {
      "anonymous": false,
      "inputs": [
        {
          "indexed": true,
          "internalType": "address",
          "name": "owner",
          "type": "address"
        },
        {
          "indexed": true,
          "internalType": "address",
          "name": "operator",
          "type": "address"
        },
        {
          "indexed": false,
          "internalType": "bool",
          "name": "approved",
          "type": "bool"
        }
      ],
      "name": "ApprovalForAll",
      "type": "event"
    },
    {
      "anonymous": false,
      "inputs": [
        {
          "indexed": false,
          "internalType": "uint256",
          "name": "ownershipId",
          "type": "uint256"
        },
        {
          "indexed": false,
          "internalType": "address",
          "name": "value",
          "type": "address"
        }
      ],
      "name": "RuleSet",
      "type": "event"
    },
    {
      "anonymous": false,
      "inputs": [
        {
          "indexed": true,
          "internalType": "address",
          "name": "from",
          "type": "address"
        },
        {
          "indexed": true,
          "internalType": "address",
          "name": "to",
          "type": "address"
        },
        {
          "indexed": true,
          "internalType": "uint256",
          "name": "tokenId",
          "type": "uint256"
        }
      ],
      "name": "Transfer",
      "type": "event"
    },
    {
      "inputs": [
        {
          "internalType": "address",
          "name": "to",
          "type": "address"
        },
        {
          "internalType": "uint256",
          "name": "tokenId",
          "type": "uint256"
        }
      ],
      "name": "approve",
      "outputs": [],
      "stateMutability": "nonpayable",
      "type": "function"
    },
    {
      "inputs": [
        {
          "internalType": "address",
          "name": "owner",
          "type": "address"
        }
      ],
      "name": "balanceOf",
      "outputs": [
        {
          "internalType": "uint256",
          "name": "",
          "type": "uint256"
        }
      ],
      "stateMutability": "view",
      "type": "function"
    },
    {
      "inputs": [
        {
          "internalType": "uint256",
          "name": "ownershipId",
          "type": "uint256"
        },
        {
          "internalType": "bytes32",
          "name": "salt",
          "type": "bytes32"
        }
      ],
      "name": "computeForwarderAddress",
      "outputs": [
        {
          "internalType": "address",
          "name": "",
          "type": "address"
        }
      ],
      "stateMutability": "view",
      "type": "function"
    },
    {
      "inputs": [
        {
          "internalType": "uint256",
          "name": "ownershipId",
          "type": "uint256"
        },
        {
          "internalType": "bytes32",
          "name": "forwarderSalt",
          "type": "bytes32"
        },
        {
          "internalType": "uint256",
          "name": "value",
          "type": "uint256"
        },
        {
          "internalType": "address",
          "name": "dest",
          "type": "address"
        }
      ],
      "name": "createForwarder",
      "outputs": [],
      "stateMutability": "nonpayable",
      "type": "function"
    },
    {
      "inputs": [
        {
          "internalType": "uint256",
          "name": "ownershipId",
          "type": "uint256"
        },
        {
          "internalType": "uint256",
          "name": "id",
          "type": "uint256"
        },
        {
          "internalType": "bytes32",
          "name": "forwarderSalt",
          "type": "bytes32"
        },
        {
          "internalType": "address",
          "name": "token",
          "type": "address"
        },
        {
          "internalType": "uint256",
          "name": "value",
          "type": "uint256"
        },
        {
          "internalType": "address",
          "name": "dest",
          "type": "address"
        }
      ],
      "name": "createForwarderERC1155",
      "outputs": [],
      "stateMutability": "nonpayable",
      "type": "function"
    },
    {
      "inputs": [
        {
          "internalType": "uint256",
          "name": "ownershipId",
          "type": "uint256"
        },
        {
          "internalType": "bytes32",
          "name": "forwarderSalt",
          "type": "bytes32"
        },
        {
          "internalType": "address",
          "name": "token",
          "type": "address"
        },
        {
          "internalType": "uint256",
          "name": "value",
          "type": "uint256"
        },
        {
          "internalType": "address",
          "name": "dest",
          "type": "address"
        }
      ],
      "name": "createForwarderERC20",
      "outputs": [],
      "stateMutability": "nonpayable",
      "type": "function"
    },
    {
      "inputs": [
        {
          "internalType": "uint256",
          "name": "ownershipId",
          "type": "uint256"
        },
        {
          "internalType": "uint256",
          "name": "id",
          "type": "uint256"
        },
        {
          "internalType": "bytes32",
          "name": "forwarderSalt",
          "type": "bytes32"
        },
        {
          "internalType": "address",
          "name": "tokenContractAddress",
          "type": "address"
        },
        {
          "internalType": "address",
          "name": "dest",
          "type": "address"
        }
      ],
      "name": "createForwarderERC721",
      "outputs": [],
      "stateMutability": "nonpayable",
      "type": "function"
    },
    {
      "inputs": [
        {
          "internalType": "uint256",
          "name": "ownershipId",
          "type": "uint256"
        },
        {
          "internalType": "bytes32",
          "name": "forwarderSalt",
          "type": "bytes32"
        },
        {
          "internalType": "uint256",
          "name": "value",
          "type": "uint256"
        },
        {
          "internalType": "address",
          "name": "dest",
          "type": "address"
        }
      ],
      "name": "flush",
      "outputs": [],
      "stateMutability": "nonpayable",
      "type": "function"
    },
    {
      "inputs": [
        {
          "internalType": "uint256",
          "name": "ownershipId",
          "type": "uint256"
        },
        {
          "internalType": "uint256",
          "name": "id",
          "type": "uint256"
        },
        {
          "internalType": "bytes32",
          "name": "forwarderSalt",
          "type": "bytes32"
        },
        {
          "internalType": "address",
          "name": "token",
          "type": "address"
        },
        {
          "internalType": "uint256",
          "name": "value",
          "type": "uint256"
        },
        {
          "internalType": "address",
          "name": "dest",
          "type": "address"
        }
      ],
      "name": "flushERC1155",
      "outputs": [],
      "stateMutability": "nonpayable",
      "type": "function"
    },
    {
      "inputs": [
        {
          "internalType": "uint256",
          "name": "ownershipId",
          "type": "uint256"
        },
        {
          "internalType": "bytes32",
          "name": "forwarderSalt",
          "type": "bytes32"
        },
        {
          "internalType": "address",
          "name": "token",
          "type": "address"
        },
        {
          "internalType": "uint256",
          "name": "value",
          "type": "uint256"
        },
        {
          "internalType": "address",
          "name": "dest",
          "type": "address"
        }
      ],
      "name": "flushERC20",
      "outputs": [],
      "stateMutability": "nonpayable",
      "type": "function"
    },
    {
      "inputs": [
        {
          "internalType": "uint256",
          "name": "ownershipId",
          "type": "uint256"
        },
        {
          "internalType": "uint256",
          "name": "id",
          "type": "uint256"
        },
        {
          "internalType": "bytes32",
          "name": "forwarderSalt",
          "type": "bytes32"
        },
        {
          "internalType": "address",
          "name": "token",
          "type": "address"
        },
        {
          "internalType": "address",
          "name": "dest",
          "type": "address"
        }
      ],
      "name": "flushERC721",
      "outputs": [],
      "stateMutability": "nonpayable",
      "type": "function"
    },
    {
      "inputs": [],
      "name": "forwarderImplementation",
      "outputs": [
        {
          "internalType": "address",
          "name": "",
          "type": "address"
        }
      ],
      "stateMutability": "view",
      "type": "function"
    },
    {
      "inputs": [
        {
          "internalType": "uint256",
          "name": "tokenId",
          "type": "uint256"
        }
      ],
      "name": "getApproved",
      "outputs": [
        {
          "internalType": "address",
          "name": "",
          "type": "address"
        }
      ],
      "stateMutability": "view",
      "type": "function"
    },
    {
      "inputs": [
        {
          "internalType": "uint256",
          "name": "ownershipId",
          "type": "uint256"
        }
      ],
      "name": "getRule",
      "outputs": [
        {
          "internalType": "address",
          "name": "",
          "type": "address"
        }
      ],
      "stateMutability": "view",
      "type": "function"
    },
    {
      "inputs": [
        {
          "internalType": "address",
          "name": "owner",
          "type": "address"
        },
        {
          "internalType": "address",
          "name": "operator",
          "type": "address"
        }
      ],
      "name": "isApprovedForAll",
      "outputs": [
        {
          "internalType": "bool",
          "name": "",
          "type": "bool"
        }
      ],
      "stateMutability": "view",
      "type": "function"
    },
    {
      "inputs": [
        {
          "internalType": "address",
          "name": "recipient",
          "type": "address"
        },
        {
          "internalType": "address",
          "name": "rule",
          "type": "address"
        }
      ],
      "name": "mint",
      "outputs": [
        {
          "internalType": "uint256",
          "name": "",
          "type": "uint256"
        }
      ],
      "stateMutability": "nonpayable",
      "type": "function"
    },
    {
      "inputs": [],
      "name": "name",
      "outputs": [
        {
          "internalType": "string",
          "name": "",
          "type": "string"
        }
      ],
      "stateMutability": "view",
      "type": "function"
    },
    {
      "inputs": [
        {
          "internalType": "uint256",
          "name": "tokenId",
          "type": "uint256"
        }
      ],
      "name": "ownerOf",
      "outputs": [
        {
          "internalType": "address",
          "name": "",
          "type": "address"
        }
      ],
      "stateMutability": "view",
      "type": "function"
    },
    {
      "inputs": [
        {
          "internalType": "address",
          "name": "from",
          "type": "address"
        },
        {
          "internalType": "address",
          "name": "to",
          "type": "address"
        },
        {
          "internalType": "uint256",
          "name": "tokenId",
          "type": "uint256"
        }
      ],
      "name": "safeTransferFrom",
      "outputs": [],
      "stateMutability": "nonpayable",
      "type": "function"
    },
    {
      "inputs": [
        {
          "internalType": "address",
          "name": "from",
          "type": "address"
        },
        {
          "internalType": "address",
          "name": "to",
          "type": "address"
        },
        {
          "internalType": "uint256",
          "name": "tokenId",
          "type": "uint256"
        },
        {
          "internalType": "bytes",
          "name": "data",
          "type": "bytes"
        }
      ],
      "name": "safeTransferFrom",
      "outputs": [],
      "stateMutability": "nonpayable",
      "type": "function"
    },
    {
      "inputs": [
        {
          "internalType": "address",
          "name": "operator",
          "type": "address"
        },
        {
          "internalType": "bool",
          "name": "approved",
          "type": "bool"
        }
      ],
      "name": "setApprovalForAll",
      "outputs": [],
      "stateMutability": "nonpayable",
      "type": "function"
    },
    {
      "inputs": [
        {
          "internalType": "uint256",
          "name": "ownershipId",
          "type": "uint256"
        },
        {
          "internalType": "address",
          "name": "value",
          "type": "address"
        }
      ],
      "name": "setRule",
      "outputs": [],
      "stateMutability": "nonpayable",
      "type": "function"
    },
    {
      "inputs": [
        {
          "internalType": "bytes4",
          "name": "interfaceId",
          "type": "bytes4"
        }
      ],
      "name": "supportsInterface",
      "outputs": [
        {
          "internalType": "bool",
          "name": "",
          "type": "bool"
        }
      ],
      "stateMutability": "view",
      "type": "function"
    },
    {
      "inputs": [],
      "name": "symbol",
      "outputs": [
        {
          "internalType": "string",
          "name": "",
          "type": "string"
        }
      ],
      "stateMutability": "view",
      "type": "function"
    },
    {
      "inputs": [
        {
          "internalType": "uint256",
          "name": "tokenId",
          "type": "uint256"
        }
      ],
      "name": "tokenURI",
      "outputs": [
        {
          "internalType": "string",
          "name": "",
          "type": "string"
        }
      ],
      "stateMutability": "view",
      "type": "function"
    },
    {
      "inputs": [
        {
          "internalType": "address",
          "name": "from",
          "type": "address"
        },
        {
          "internalType": "address",
          "name": "to",
          "type": "address"
        },
        {
          "internalType": "uint256",
          "name": "tokenId",
          "type": "uint256"
        }
      ],
      "name": "transferFrom",
      "outputs": [],
      "stateMutability": "nonpayable",
      "type": "function"
    }
  ],
  "bytecode": {
    "object": "0x60a06040523480156200001157600080fd5b5060405162002c3838038062002c388339810160408190526200003491620000bb565b6040518060400160405280601b81526020017f437572726120466f7277617264657273204f776e6572736869707300000000008152506040518060400160405280600381526020016243464f60e81b815250816000908162000097919062000192565b506001620000a6828262000192565b5050506001600160a01b03166080526200025e565b600060208284031215620000ce57600080fd5b81516001600160a01b0381168114620000e657600080fd5b9392505050565b634e487b7160e01b600052604160045260246000fd5b600181811c908216806200011857607f821691505b6020821081036200013957634e487b7160e01b600052602260045260246000fd5b50919050565b601f8211156200018d57600081815260208120601f850160051c81016020861015620001685750805b601f850160051c820191505b81811015620001895782815560010162000174565b5050505b505050565b81516001600160401b03811115620001ae57620001ae620000ed565b620001c681620001bf845462000103565b846200013f565b602080601f831160018114620001fe5760008415620001e55750858301515b600019600386901b1c1916600185901b17855562000189565b600085815260208120601f198616915b828110156200022f578886015182559484019460019091019084016200020e565b50858210156200024e5787850151600019600388901b60f8161c191681555b5050505050600190811b01905550565b6080516129b062000288600039600081816103b70152818161087b01526111c901526129b06000f3fe608060405234801561001057600080fd5b50600436106101ae5760003560e01c80636352211e116100ee578063bdc6fa4a11610097578063db4087d611610071578063db4087d61461039f578063e38d60a1146103b2578063e985e9c5146103d9578063ee1fe2ad1461041557600080fd5b8063bdc6fa4a14610366578063c19260df14610379578063c87b56dd1461038c57600080fd5b806395d89b41116100c857806395d89b4114610338578063a22cb46514610340578063b88d4fde1461035357600080fd5b80636352211e146102f157806370a08231146103045780638a4742451461032557600080fd5b80633acc3e1a1161015b5780634d215ddd116101355780634d215ddd146102a557806357bc1a02146102b85780635ac40c91146102cb5780635c2d00a5146102de57600080fd5b80633acc3e1a1461025657806342842e0e14610269578063484620371461027c57600080fd5b8063081812fc1161018c578063081812fc14610205578063095ea7b31461023057806323b872dd1461024357600080fd5b806301ff2dca146101b357806301ffc9a7146101c857806306fdde03146101f0575b600080fd5b6101c66101c1366004611daf565b610428565b005b6101db6101d6366004611e3b565b61044d565b60405190151581526020015b60405180910390f35b6101f8610532565b6040516101e79190611ea8565b610218610213366004611ebb565b6105c4565b6040516001600160a01b0390911681526020016101e7565b6101c661023e366004611ed4565b6105eb565b6101c6610251366004611f00565b610721565b6101c6610264366004611f41565b6107a8565b6101c6610277366004611f00565b6107cb565b61021861028a366004611ebb565b6000908152600760205260409020546001600160a01b031690565b6101c66102b3366004611f97565b6107e6565b6101c66102c6366004611fc7565b610851565b6101c66102d9366004611fc7565b61086c565b6102186102ec36600461200f565b610874565b6102186102ff366004611ebb565b610930565b610317610312366004612031565b610995565b6040519081526020016101e7565b6101c6610333366004611f41565b610a2f565b6101f8610a3b565b6101c661034e36600461204e565b610a4a565b6101c66103613660046120b0565b610a59565b6101c6610374366004612190565b610ae7565b6101c6610387366004611daf565b610b08565b6101f861039a366004611ebb565b610b14565b6101c66103ad366004612190565b610b87565b6102187f000000000000000000000000000000000000000000000000000000000000000081565b6101db6103e73660046121d1565b6001600160a01b03918216600090815260056020908152604080832093909416825291909152205460ff1690565b6103176104233660046121d1565b610b9e565b60006104348786610874565b9050610444878783878787610c23565b50505050505050565b60007fffffffff0000000000000000000000000000000000000000000000000000000082167f80ac58cd0000000000000000000000000000000000000000000000000000000014806104e057507fffffffff0000000000000000000000000000000000000000000000000000000082167f5b5e139f00000000000000000000000000000000000000000000000000000000145b8061052c57507f01ffc9a7000000000000000000000000000000000000000000000000000000007fffffffff000000000000000000000000000000000000000000000000000000008316145b92915050565b606060008054610541906121ff565b80601f016020809104026020016040519081016040528092919081815260200182805461056d906121ff565b80156105ba5780601f1061058f576101008083540402835291602001916105ba565b820191906000526020600020905b81548152906001019060200180831161059d57829003601f168201915b5050505050905090565b60006105cf82610cd1565b506000908152600460205260409020546001600160a01b031690565b60006105f682610930565b9050806001600160a01b0316836001600160a01b0316036106845760405162461bcd60e51b815260206004820152602160248201527f4552433732313a20617070726f76616c20746f2063757272656e74206f776e6560448201527f720000000000000000000000000000000000000000000000000000000000000060648201526084015b60405180910390fd5b336001600160a01b03821614806106a057506106a081336103e7565b6107125760405162461bcd60e51b815260206004820152603d60248201527f4552433732313a20617070726f76652063616c6c6572206973206e6f7420746f60448201527f6b656e206f776e6572206f7220617070726f76656420666f7220616c6c000000606482015260840161067b565b61071c8383610d38565b505050565b61072b3382610db3565b61079d5760405162461bcd60e51b815260206004820152602d60248201527f4552433732313a2063616c6c6572206973206e6f7420746f6b656e206f776e6560448201527f72206f7220617070726f76656400000000000000000000000000000000000000606482015260840161067b565b61071c838383610e32565b60006107b48686610874565b90506107c38682868686611075565b505050505050565b61071c83838360405180602001604052806000815250610a59565b81336107f182610930565b6001600160a01b0316146108475760405162461bcd60e51b815260206004820152600b60248201527f546f6b656e206f776e6572000000000000000000000000000000000000000000604482015260640161067b565b61071c838361111a565b600061085d868561118d565b90506107c386868386866111ee565b600061085d86855b60006109297f000000000000000000000000000000000000000000000000000000000000000084846040516020016108b6929190918252602082015260400190565b604051602081830303815290604052805190602001203060405160388101919091526f5af43d82803e903d91602b57fd5bf3ff60248201526014810192909252733d602d80600a3d3981f3363d3d373d3d3d363d73825260588201526037600c8201206078820152605560439091012090565b9392505050565b6000818152600260205260408120546001600160a01b03168061052c5760405162461bcd60e51b815260206004820152601860248201527f4552433732313a20696e76616c696420746f6b656e2049440000000000000000604482015260640161067b565b60006001600160a01b038216610a135760405162461bcd60e51b815260206004820152602960248201527f4552433732313a2061646472657373207a65726f206973206e6f74206120766160448201527f6c6964206f776e65720000000000000000000000000000000000000000000000606482015260840161067b565b506001600160a01b031660009081526003602052604090205490565b60006107b4868661118d565b606060018054610541906121ff565b610a5533838361128f565b5050565b610a633383610db3565b610ad55760405162461bcd60e51b815260206004820152602d60248201527f4552433732313a2063616c6c6572206973206e6f7420746f6b656e206f776e6560448201527f72206f7220617070726f76656400000000000000000000000000000000000000606482015260840161067b565b610ae18484848461137b565b50505050565b6000610af38585610874565b9050610b0185828585611404565b5050505050565b6000610434878661118d565b6060610b1f82610cd1565b6000610b3660408051602081019091526000815290565b90506000815111610b565760405180602001604052806000815250610929565b80610b6084611469565b604051602001610b71929190612252565b6040516020818303038152906040529392505050565b610b91848461118d565b50610ae184848484610ae7565b6000610bae600680546001019055565b6000610bb960065490565b9050610bc58482611509565b826001600160a01b038116610c115784604051610be190611d8d565b6001600160a01b039091168152602001604051809103906000f080158015610c0d573d6000803e3d6000fd5b5090505b610c1b828261111a565b509392505050565b600080610c348887878a88886116af565b6040517ffbd5f6b00000000000000000000000000000000000000000000000000000000081526001600160a01b038881166004830152602482018b9052604482018390528084166064830152929450909250879182169063fbd5f6b090608401600060405180830381600087803b158015610cae57600080fd5b505af1158015610cc2573d6000803e3d6000fd5b50505050505050505050505050565b6000818152600260205260409020546001600160a01b0316610d355760405162461bcd60e51b815260206004820152601860248201527f4552433732313a20696e76616c696420746f6b656e2049440000000000000000604482015260640161067b565b50565b6000818152600460205260409020805473ffffffffffffffffffffffffffffffffffffffff19166001600160a01b0384169081179091558190610d7a82610930565b6001600160a01b03167f8c5be1e5ebec7d5bd14f71427d1e84f3dd0314c0f7b2291e5b200ac8c7c3b92560405160405180910390a45050565b600080610dbf83610930565b9050806001600160a01b0316846001600160a01b03161480610e0657506001600160a01b0380821660009081526005602090815260408083209388168352929052205460ff165b80610e2a5750836001600160a01b0316610e1f846105c4565b6001600160a01b0316145b949350505050565b826001600160a01b0316610e4582610930565b6001600160a01b031614610ec15760405162461bcd60e51b815260206004820152602560248201527f4552433732313a207472616e736665722066726f6d20696e636f72726563742060448201527f6f776e6572000000000000000000000000000000000000000000000000000000606482015260840161067b565b6001600160a01b038216610f3c5760405162461bcd60e51b8152602060048201526024808201527f4552433732313a207472616e7366657220746f20746865207a65726f2061646460448201527f7265737300000000000000000000000000000000000000000000000000000000606482015260840161067b565b610f498383836001611786565b826001600160a01b0316610f5c82610930565b6001600160a01b031614610fd85760405162461bcd60e51b815260206004820152602560248201527f4552433732313a207472616e736665722066726f6d20696e636f72726563742060448201527f6f776e6572000000000000000000000000000000000000000000000000000000606482015260840161067b565b6000818152600460209081526040808320805473ffffffffffffffffffffffffffffffffffffffff199081169091556001600160a01b0387811680865260038552838620805460001901905590871680865283862080546001019055868652600290945282852080549092168417909155905184937fddf252ad1be2c89b69c2b068fc378daa952ba7f163c4a11628f55a4df523b3ef91a4505050565b600080611085878787878761180e565b6040517f0e1b84f40000000000000000000000000000000000000000000000000000000081526001600160a01b0388811660048301526024820183905280841660448301529294509092508791821690630e1b84f490606401600060405180830381600087803b1580156110f857600080fd5b505af115801561110c573d6000803e3d6000fd5b505050505050505050505050565b600082815260076020908152604091829020805473ffffffffffffffffffffffffffffffffffffffff19166001600160a01b0385169081179091558251858152918201527fe66dcdf7a5263efa3fa70fd568bdff5519a26957dd91e061604d4441f76c58a1910160405180910390a15050565b60008083836040516020016111ac929190918252602082015260400190565b604051602081830303815290604052805190602001209050610e2a7f0000000000000000000000000000000000000000000000000000000000000000826118dd565b60006111fd868585888661197a565b6040517faca8fc590000000000000000000000000000000000000000000000000000000081526001600160a01b038581166004830152602482018890528083166044830152919250859182169063aca8fc59906064015b600060405180830381600087803b15801561126e57600080fd5b505af1158015611282573d6000803e3d6000fd5b5050505050505050505050565b816001600160a01b0316836001600160a01b0316036112f05760405162461bcd60e51b815260206004820152601960248201527f4552433732313a20617070726f766520746f2063616c6c657200000000000000604482015260640161067b565b6001600160a01b0383811660008181526005602090815260408083209487168084529482529182902080547fffffffffffffffffffffffffffffffffffffffffffffffffffffffffffffff001686151590811790915591519182527f17307eab39ab6107e8899845ad3d59bd9653f200f220920489ca2b5937696c31910160405180910390a3505050565b611386848484610e32565b61139284848484611a44565b610ae15760405162461bcd60e51b815260206004820152603260248201527f4552433732313a207472616e7366657220746f206e6f6e20455243373231526560448201527f63656976657220696d706c656d656e7465720000000000000000000000000000606482015260840161067b565b60008061141386868686611be5565b6040517f96fd1c420000000000000000000000000000000000000000000000000000000081526001600160a01b0380841660048301526024820183905292945090925086918216906396fd1c4290604401611254565b6060600061147683611cab565b600101905060008167ffffffffffffffff81111561149657611496612081565b6040519080825280601f01601f1916602001820160405280156114c0576020820181803683370190505b5090508181016020015b600019017f3031323334353637383961626364656600000000000000000000000000000000600a86061a8153600a85049450846114ca57509392505050565b6001600160a01b03821661155f5760405162461bcd60e51b815260206004820181905260248201527f4552433732313a206d696e7420746f20746865207a65726f2061646472657373604482015260640161067b565b6000818152600260205260409020546001600160a01b0316156115c45760405162461bcd60e51b815260206004820152601c60248201527f4552433732313a20746f6b656e20616c7265616479206d696e74656400000000604482015260640161067b565b6115d2600083836001611786565b6000818152600260205260409020546001600160a01b0316156116375760405162461bcd60e51b815260206004820152601c60248201527f4552433732313a20746f6b656e20616c7265616479206d696e74656400000000604482015260640161067b565b6001600160a01b0382166000818152600360209081526040808320805460010190558483526002909152808220805473ffffffffffffffffffffffffffffffffffffffff19168417905551839291907fddf252ad1be2c89b69c2b068fc378daa952ba7f163c4a11628f55a4df523b3ef908290a45050565b600086815260076020526040812054819081906001600160a01b03166040517fcb18d160000000000000000000000000000000000000000000000000000000008152600481018b90526001600160a01b038a811660248301528981166044830152606482018990526084820188905286811660a48301529192509082169063cb18d1609060c4016040805180830381865afa158015611752573d6000803e3d6000fd5b505050506040513d601f19601f820116820180604052508101906117769190612281565b9250925050965096945050505050565b6001811115610ae1576001600160a01b038416156117cc576001600160a01b038416600090815260036020526040812080548392906117c69084906122de565b90915550505b6001600160a01b03831615610ae1576001600160a01b038316600090815260036020526040812080548392906118039084906122f1565b909155505050505050565b600085815260076020526040812054819081906001600160a01b03166040517f58896063000000000000000000000000000000000000000000000000000000008152600481018a90526001600160a01b03898116602483015288811660448301526064820188905286811660848301529192509082169063588960639060a4016040805180830381865afa1580156118aa573d6000803e3d6000fd5b505050506040513d601f19601f820116820180604052508101906118ce9190612281565b92509250509550959350505050565b6000763d602d80600a3d3981f3363d3d373d3d3d363d730000008360601b60e81c176000526e5af43d82803e903d91602b57fd5bf38360781b1760205281603760096000f590506001600160a01b03811661052c5760405162461bcd60e51b815260206004820152601760248201527f455243313136373a2063726561746532206661696c6564000000000000000000604482015260640161067b565b60008581526007602052604081205481906001600160a01b03166040517ffe22a189000000000000000000000000000000000000000000000000000000008152600481018990526001600160a01b03888116602483015287811660448301526064820187905285811660848301529192509082169063fe22a1899060a401602060405180830381865afa158015611a15573d6000803e3d6000fd5b505050506040513d601f19601f82011682018060405250810190611a399190612304565b979650505050505050565b60006001600160a01b0384163b15611bda576040517f150b7a020000000000000000000000000000000000000000000000000000000081526001600160a01b0385169063150b7a0290611aa1903390899088908890600401612321565b6020604051808303816000875af1925050508015611adc575060408051601f3d908101601f19168201909252611ad99181019061235d565b60015b611b8f573d808015611b0a576040519150601f19603f3d011682016040523d82523d6000602084013e611b0f565b606091505b508051600003611b875760405162461bcd60e51b815260206004820152603260248201527f4552433732313a207472616e7366657220746f206e6f6e20455243373231526560448201527f63656976657220696d706c656d656e7465720000000000000000000000000000606482015260840161067b565b805181602001fd5b7fffffffff00000000000000000000000000000000000000000000000000000000167f150b7a0200000000000000000000000000000000000000000000000000000000149050610e2a565b506001949350505050565b600084815260076020526040812054819081906001600160a01b03166040517f9fe45c91000000000000000000000000000000000000000000000000000000008152600481018990526001600160a01b03888116602483015260448201889052868116606483015291925090821690639fe45c91906084016040805180830381865afa158015611c79573d6000803e3d6000fd5b505050506040513d601f19601f82011682018060405250810190611c9d9190612281565b925092505094509492505050565b6000807a184f03e93ff9f4daa797ed6e38ed64bf6a1f0100000000000000008310611cf4577a184f03e93ff9f4daa797ed6e38ed64bf6a1f010000000000000000830492506040015b6d04ee2d6d415b85acef81000000008310611d20576d04ee2d6d415b85acef8100000000830492506020015b662386f26fc100008310611d3e57662386f26fc10000830492506010015b6305f5e1008310611d56576305f5e100830492506008015b6127108310611d6a57612710830492506004015b60648310611d7c576064830492506002015b600a831061052c5760010192915050565b6106008061237b83390190565b6001600160a01b0381168114610d3557600080fd5b60008060008060008060c08789031215611dc857600080fd5b8635955060208701359450604087013593506060870135611de881611d9a565b92506080870135915060a0870135611dff81611d9a565b809150509295509295509295565b7fffffffff0000000000000000000000000000000000000000000000000000000081168114610d3557600080fd5b600060208284031215611e4d57600080fd5b813561092981611e0d565b60005b83811015611e73578181015183820152602001611e5b565b50506000910152565b60008151808452611e94816020860160208601611e58565b601f01601f19169290920160200192915050565b6020815260006109296020830184611e7c565b600060208284031215611ecd57600080fd5b5035919050565b60008060408385031215611ee757600080fd5b8235611ef281611d9a565b946020939093013593505050565b600080600060608486031215611f1557600080fd5b8335611f2081611d9a565b92506020840135611f3081611d9a565b929592945050506040919091013590565b600080600080600060a08688031215611f5957600080fd5b85359450602086013593506040860135611f7281611d9a565b9250606086013591506080860135611f8981611d9a565b809150509295509295909350565b60008060408385031215611faa57600080fd5b823591506020830135611fbc81611d9a565b809150509250929050565b600080600080600060a08688031215611fdf57600080fd5b8535945060208601359350604086013592506060860135611fff81611d9a565b91506080860135611f8981611d9a565b6000806040838503121561202257600080fd5b50508035926020909101359150565b60006020828403121561204357600080fd5b813561092981611d9a565b6000806040838503121561206157600080fd5b823561206c81611d9a565b915060208301358015158114611fbc57600080fd5b7f4e487b7100000000000000000000000000000000000000000000000000000000600052604160045260246000fd5b600080600080608085870312156120c657600080fd5b84356120d181611d9a565b935060208501356120e181611d9a565b925060408501359150606085013567ffffffffffffffff8082111561210557600080fd5b818701915087601f83011261211957600080fd5b81358181111561212b5761212b612081565b604051601f8201601f19908116603f0116810190838211818310171561215357612153612081565b816040528281528a602084870101111561216c57600080fd5b82602086016020830137600060208483010152809550505050505092959194509250565b600080600080608085870312156121a657600080fd5b84359350602085013592506040850135915060608501356121c681611d9a565b939692955090935050565b600080604083850312156121e457600080fd5b82356121ef81611d9a565b91506020830135611fbc81611d9a565b600181811c9082168061221357607f821691505b60208210810361224c577f4e487b7100000000000000000000000000000000000000000000000000000000600052602260045260246000fd5b50919050565b60008351612264818460208801611e58565b835190830190612278818360208801611e58565b01949350505050565b6000806040838503121561229457600080fd5b825161229f81611d9a565b6020939093015192949293505050565b7f4e487b7100000000000000000000000000000000000000000000000000000000600052601160045260246000fd5b8181038181111561052c5761052c6122af565b8082018082111561052c5761052c6122af565b60006020828403121561231657600080fd5b815161092981611d9a565b60006001600160a01b038087168352808616602084015250836040830152608060608301526123536080830184611e7c565b9695505050505050565b60006020828403121561236f57600080fd5b815161092981611e0d56fe60a060405234801561001057600080fd5b5060405161060038038061060083398101604081905261002f91610040565b6001600160a01b0316608052610070565b60006020828403121561005257600080fd5b81516001600160a01b038116811461006957600080fd5b9392505050565b60805161053e6100c26000396000818160710152818161012f01528181610158015281816101ed01528181610216015281816102a1015281816102ca01528181610356015261037c015261053e6000f3fe608060405234801561001057600080fd5b50600436106100675760003560e01c80639fe45c91116100505780639fe45c91146100e2578063cb18d160146100f5578063fe22a1891461010857600080fd5b80633d9287fa1461006c57806358896063146100b0575b600080fd5b6100937f000000000000000000000000000000000000000000000000000000000000000081565b6040516001600160a01b0390911681526020015b60405180910390f35b6100c36100be36600461040c565b61011b565b604080516001600160a01b0390931683526020830191909152016100a7565b6100c36100f0366004610463565b6101d9565b6100c36101033660046104a9565b61028d565b61009361011636600461040c565b610343565b6000806001600160a01b03831661015657507f00000000000000000000000000000000000000000000000000000000000000009050826101cf565b7f00000000000000000000000000000000000000000000000000000000000000006001600160a01b0316836001600160a01b0316146101c95760405162461bcd60e51b81526004016101c09060208082526004908201526311195cdd60e21b604082015260600190565b60405180910390fd5b50819050825b9550959350505050565b6000806001600160a01b03831661021457507f0000000000000000000000000000000000000000000000000000000000000000905082610284565b7f00000000000000000000000000000000000000000000000000000000000000006001600160a01b0316836001600160a01b03161461027e5760405162461bcd60e51b81526004016101c09060208082526004908201526311195cdd60e21b604082015260600190565b50819050825b94509492505050565b6000806001600160a01b0383166102c857507f0000000000000000000000000000000000000000000000000000000000000000905082610338565b7f00000000000000000000000000000000000000000000000000000000000000006001600160a01b0316836001600160a01b0316146103325760405162461bcd60e51b81526004016101c09060208082526004908201526311195cdd60e21b604082015260600190565b50819050825b965096945050505050565b60006001600160a01b03821661037a57507f00000000000000000000000000000000000000000000000000000000000000006103e7565b7f00000000000000000000000000000000000000000000000000000000000000006001600160a01b0316826001600160a01b0316146103e45760405162461bcd60e51b81526004016101c09060208082526004908201526311195cdd60e21b604082015260600190565b50805b95945050505050565b80356001600160a01b038116811461040757600080fd5b919050565b600080600080600060a0868803121561042457600080fd5b85359450610434602087016103f0565b9350610442604087016103f0565b925060608601359150610457608087016103f0565b90509295509295909350565b6000806000806080858703121561047957600080fd5b84359350610489602086016103f0565b92506040850135915061049e606086016103f0565b905092959194509250565b60008060008060008060c087890312156104c257600080fd5b863595506104d2602088016103f0565b94506104e0604088016103f0565b935060608701359250608087013591506104fc60a088016103f0565b9050929550929550929556fea264697066735822122068e857ad91faeb587d8392b9129117629788c0daf2f627b3854ecec430f1dca364736f6c63430008110033a26469706673582212200ca7061a33f540d6814e77e4bd4adb257d2f7d8994bb81c1876b483905f822d964736f6c63430008110033",
    "linkReferences": {}
  },
  "methodIdentifiers": {
    "approve(address,uint256)": "095ea7b3",
    "balanceOf(address)": "70a08231",
    "computeForwarderAddress(uint256,bytes32)": "5c2d00a5",
    "createForwarder(uint256,bytes32,uint256,address)": "db4087d6",
    "createForwarderERC1155(uint256,uint256,bytes32,address,uint256,address)": "c19260df",
    "createForwarderERC20(uint256,bytes32,address,uint256,address)": "8a474245",
    "createForwarderERC721(uint256,uint256,bytes32,address,address)": "57bc1a02",
    "flush(uint256,bytes32,uint256,address)": "bdc6fa4a",
    "flushERC1155(uint256,uint256,bytes32,address,uint256,address)": "01ff2dca",
    "flushERC20(uint256,bytes32,address,uint256,address)": "3acc3e1a",
    "flushERC721(uint256,uint256,bytes32,address,address)": "5ac40c91",
    "forwarderImplementation()": "e38d60a1",
    "getApproved(uint256)": "081812fc",
    "getRule(uint256)": "48462037",
    "isApprovedForAll(address,address)": "e985e9c5",
    "mint(address,address)": "ee1fe2ad",
    "name()": "06fdde03",
    "ownerOf(uint256)": "6352211e",
    "safeTransferFrom(address,address,uint256)": "42842e0e",
    "safeTransferFrom(address,address,uint256,bytes)": "b88d4fde",
    "setApprovalForAll(address,bool)": "a22cb465",
    "setRule(uint256,address)": "4d215ddd",
    "supportsInterface(bytes4)": "01ffc9a7",
    "symbol()": "95d89b41",
    "tokenURI(uint256)": "c87b56dd",
    "transferFrom(address,address,uint256)": "23b872dd"
  },
  "id": 48
}