{
  "abi": [
    {
      "inputs": [
        {
          "internalType": "address",
          "name": "_whitelisted",
          "type": "address"
        }
      ],
      "stateMutability": "nonpayable",
      "type": "constructor"
    },
    {
      "inputs": [
        {
          "internalType": "uint256",
          "name": "",
          "type": "uint256"
        },
        {
          "internalType": "address",
          "name": "",
          "type": "address"
        },
        {
          "internalType": "uint256",
          "name": "value",
          "type": "uint256"
        },
        {
          "internalType": "address",
          "name": "dest",
          "type": "address"
        }
      ],
      "name": "exec",
      "outputs": [
        {
          "internalType": "address",
          "name": "",
          "type": "address"
        },
        {
          "internalType": "uint256",
          "name": "",
          "type": "uint256"
        }
      ],
      "stateMutability": "view",
      "type": "function"
    },
    {
      "inputs": [
        {
          "internalType": "uint256",
          "name": "",
          "type": "uint256"
        },
        {
          "internalType": "address",
          "name": "",
          "type": "address"
        },
        {
          "internalType": "address",
          "name": "",
          "type": "address"
        },
        {
          "internalType": "uint256",
          "name": "",
          "type": "uint256"
        },
        {
          "internalType": "uint256",
          "name": "value",
          "type": "uint256"
        },
        {
          "internalType": "address",
          "name": "dest",
          "type": "address"
        }
      ],
      "name": "execERC1155",
      "outputs": [
        {
          "internalType": "address",
          "name": "",
          "type": "address"
        },
        {
          "internalType": "uint256",
          "name": "",
          "type": "uint256"
        }
      ],
      "stateMutability": "view",
      "type": "function"
    },
    {
      "inputs": [
        {
          "internalType": "uint256",
          "name": "",
          "type": "uint256"
        },
        {
          "internalType": "address",
          "name": "",
          "type": "address"
        },
        {
          "internalType": "address",
          "name": "",
          "type": "address"
        },
        {
          "internalType": "uint256",
          "name": "value",
          "type": "uint256"
        },
        {
          "internalType": "address",
          "name": "dest",
          "type": "address"
        }
      ],
      "name": "execERC20",
      "outputs": [
        {
          "internalType": "address",
          "name": "",
          "type": "address"
        },
        {
          "internalType": "uint256",
          "name": "",
          "type": "uint256"
        }
      ],
      "stateMutability": "view",
      "type": "function"
    },
    {
      "inputs": [
        {
          "internalType": "uint256",
          "name": "",
          "type": "uint256"
        },
        {
          "internalType": "address",
          "name": "",
          "type": "address"
        },
        {
          "internalType": "address",
          "name": "",
          "type": "address"
        },
        {
          "internalType": "uint256",
          "name": "",
          "type": "uint256"
        },
        {
          "internalType": "address",
          "name": "dest",
          "type": "address"
        }
      ],
      "name": "execERC721",
      "outputs": [
        {
          "internalType": "address",
          "name": "",
          "type": "address"
        }
      ],
      "stateMutability": "view",
      "type": "function"
    },
    {
      "inputs": [],
      "name": "whitelisted",
      "outputs": [
        {
          "internalType": "address",
          "name": "",
          "type": "address"
        }
      ],
      "stateMutability": "view",
      "type": "function"
    }
  ],
  "bytecode": {
    "object": "0x60a060405234801561001057600080fd5b5060405161060038038061060083398101604081905261002f91610040565b6001600160a01b0316608052610070565b60006020828403121561005257600080fd5b81516001600160a01b038116811461006957600080fd5b9392505050565b60805161053e6100c26000396000818160710152818161012f01528181610158015281816101ed01528181610216015281816102a1015281816102ca01528181610356015261037c015261053e6000f3fe608060405234801561001057600080fd5b50600436106100675760003560e01c80639fe45c91116100505780639fe45c91146100e2578063cb18d160146100f5578063fe22a1891461010857600080fd5b80633d9287fa1461006c57806358896063146100b0575b600080fd5b6100937f000000000000000000000000000000000000000000000000000000000000000081565b6040516001600160a01b0390911681526020015b60405180910390f35b6100c36100be36600461040c565b61011b565b604080516001600160a01b0390931683526020830191909152016100a7565b6100c36100f0366004610463565b6101d9565b6100c36101033660046104a9565b61028d565b61009361011636600461040c565b610343565b6000806001600160a01b03831661015657507f00000000000000000000000000000000000000000000000000000000000000009050826101cf565b7f00000000000000000000000000000000000000000000000000000000000000006001600160a01b0316836001600160a01b0316146101c95760405162461bcd60e51b81526004016101c09060208082526004908201526311195cdd60e21b604082015260600190565b60405180910390fd5b50819050825b9550959350505050565b6000806001600160a01b03831661021457507f0000000000000000000000000000000000000000000000000000000000000000905082610284565b7f00000000000000000000000000000000000000000000000000000000000000006001600160a01b0316836001600160a01b03161461027e5760405162461bcd60e51b81526004016101c09060208082526004908201526311195cdd60e21b604082015260600190565b50819050825b94509492505050565b6000806001600160a01b0383166102c857507f0000000000000000000000000000000000000000000000000000000000000000905082610338565b7f00000000000000000000000000000000000000000000000000000000000000006001600160a01b0316836001600160a01b0316146103325760405162461bcd60e51b81526004016101c09060208082526004908201526311195cdd60e21b604082015260600190565b50819050825b965096945050505050565b60006001600160a01b03821661037a57507f00000000000000000000000000000000000000000000000000000000000000006103e7565b7f00000000000000000000000000000000000000000000000000000000000000006001600160a01b0316826001600160a01b0316146103e45760405162461bcd60e51b81526004016101c09060208082526004908201526311195cdd60e21b604082015260600190565b50805b95945050505050565b80356001600160a01b038116811461040757600080fd5b919050565b600080600080600060a0868803121561042457600080fd5b85359450610434602087016103f0565b9350610442604087016103f0565b925060608601359150610457608087016103f0565b90509295509295909350565b6000806000806080858703121561047957600080fd5b84359350610489602086016103f0565b92506040850135915061049e606086016103f0565b905092959194509250565b60008060008060008060c087890312156104c257600080fd5b863595506104d2602088016103f0565b94506104e0604088016103f0565b935060608701359250608087013591506104fc60a088016103f0565b9050929550929550929556fea264697066735822122068e857ad91faeb587d8392b9129117629788c0daf2f627b3854ecec430f1dca364736f6c63430008110033",
    "linkReferences": {}
  },
  "methodIdentifiers": {
    "exec(uint256,address,uint256,address)": "9fe45c91",
    "execERC1155(uint256,address,address,uint256,uint256,address)": "cb18d160",
    "execERC20(uint256,address,address,uint256,address)": "58896063",
    "execERC721(uint256,address,address,uint256,address)": "fe22a189",
    "whitelisted()": "3d9287fa"
  },
  "id": 49
}